{
  "contractName": "Ballot",
  "abi": [
    {
      "inputs": [],
      "payable": false,
      "stateMutability": "nonpayable",
      "type": "constructor"
    },
    {
      "constant": true,
      "inputs": [],
      "name": "isVoted",
      "outputs": [
        {
          "name": "",
          "type": "bool"
        }
      ],
      "payable": false,
      "stateMutability": "view",
      "type": "function"
    },
    {
      "constant": false,
      "inputs": [
        {
          "name": "_number",
          "type": "uint256"
        }
      ],
      "name": "vote",
      "outputs": [
        {
          "name": "",
          "type": "bool"
        }
      ],
      "payable": false,
      "stateMutability": "nonpayable",
      "type": "function"
    },
    {
      "constant": true,
      "inputs": [],
      "name": "getCandidates",
      "outputs": [
        {
          "name": "",
          "type": "uint256[]"
        },
        {
          "name": "",
          "type": "string[]"
        },
        {
          "name": "",
          "type": "uint256[]"
        }
      ],
      "payable": false,
      "stateMutability": "view",
      "type": "function"
    }
  ],
  "bytecode": "0x6080604052610e80604051908101604052806040805190810160405280600981526020017fe4ba9ae5b7b4e9a1bf000000000000000000000000000000000000000000000081525081526020016040805190810160405280600c81526020017fe782bce98791e69cafe5a3ab000000000000000000000000000000000000000081525081526020016040805190810160405280600c81526020017fe8bf9ce58fa4e586b0e9ad84000000000000000000000000000000000000000081525081526020016040805190810160405280600981526020017fe6958ce6b395e5b888000000000000000000000000000000000000000000000081525081526020016040805190810160405280600f81526020017fe5a4a9e7a9b9e5ae88e69c9be88085000000000000000000000000000000000081525081526020016040805190810160405280600681526020017fe696a7e78e8b000000000000000000000000000000000000000000000000000081525081526020016040805190810160405280600c81526020017fe7a5b8e4b9b1e4b98be6ba90000000000000000000000000000000000000000081525081526020016040805190810160405280600c81526020017fe89d99e89da0e9aa91e5a3ab000000000000000000000000000000000000000081525081526020016040805190810160405280600681526020017fe585bde78e8b000000000000000000000000000000000000000000000000000081525081526020016040805190810160405280600c81526020017fe5979ce8a180e78b82e9ad94000000000000000000000000000000000000000081525081526020016040805190810160405280600c81526020017fe8b58fe98791e78c8ee4baba000000000000000000000000000000000000000081525081526020016040805190810160405280600681526020017fe98592e4bb99000000000000000000000000000000000000000000000000000081525081526020016040805190810160405280600981526020017fe992a2e8838ce585bd000000000000000000000000000000000000000000000081525081526020016040805190810160405280600c81526020017fe882b2e6af8de89c98e89b9b000000000000000000000000000000000000000081525081526020016040805190810160405280601281526020017fe58d8ae4babae9a9ace68898e8a18ce88085000000000000000000000000000081525081526020016040805190810160405280600c81526020017fe6b7b7e6b28ce9aa91e5a3ab000000000000000000000000000000000000000081525081526020016040805190810160405280600381526020017fe99988000000000000000000000000000000000000000000000000000000000081525081526020016040805190810160405280600c81526020017fe5858be69e97e5858be585b9000000000000000000000000000000000000000081525081526020016040805190810160405280600c81526020017fe58f91e69da1e68a80e5b888000000000000000000000000000000000000000081525081526020016040805190810160405280600c81526020017fe6b0b4e699b6e5aea4e5a5b3000000000000000000000000000000000000000081525081526020016040805190810160405280600c81526020017fe9bb91e69a97e8b4a4e88085000000000000000000000000000000000000000081525081526020016040805190810160405280600c81526020017fe982aae5bdb1e88ab3e781b5000000000000000000000000000000000000000081525081526020016040805190810160405280600681526020017fe688b4e6b3bd000000000000000000000000000000000000000000000000000081525081526020016040805190810160405280600c81526020017fe6adbbe4baa1e58588e79fa5000000000000000000000000000000000000000081525081526020016040805190810160405280600981526020017fe5b9b2e689b0e88085000000000000000000000000000000000000000000000081525081526020016040805190810160405280600c81526020017fe69cabe697a5e4bdbfe88085000000000000000000000000000000000000000081525081526020016040805190810160405280600981526020017fe9be99e9aa91e5a3ab000000000000000000000000000000000000000000000081525081526020016040805190810160405280600c81526020017fe58d93e5b094e6b8b8e4bea0000000000000000000000000000000000000000081525081526020016040805190810160405280600c81526020017fe5a4a7e59cb0e4b98be781b5000000000000000000000000000000000000000081525081526020016040805190810160405280600981526020017fe692bce59cb0e88085000000000000000000000000000000000000000000000081525081526020016040805190810160405280600c81526020017fe4b88ae58fa4e5b7a8e7a59e000000000000000000000000000000000000000081525081526020016040805190810160405280600c81526020017fe781b0e783ace4b98be781b5000000000000000000000000000000000000000081525081526020016040805190810160405280600c81526020017fe9ad85e68391e9ad94e5a5b3000000000000000000000000000000000000000081525081526020016040805190810160405280600681526020017fe8b09ce59ba2000000000000000000000000000000000000000000000000000081525081526020016040805190810160405280600c81526020017fe8999ae7a9bae58187e99da2000000000000000000000000000000000000000081525081526020016040805190810160405280600c81526020017fe5a4a9e6b6afe5a2a8e5aea2000000000000000000000000000000000000000081525081526020016040805190810160405280600f81526020017fe79faee4babae79bb4e58d87e69cba000000000000000000000000000000000081525081526020016040805190810160405280600981526020017fe59388e696afe58da1000000000000000000000000000000000000000000000081525081526020016040805190810160405280600981526020017fe7a588e6b182e88085000000000000000000000000000000000000000000000081525081526020016040805190810160405280600681526020017fe889bee6aca7000000000000000000000000000000000000000000000000000081525081526020016040805190810160405280600981526020017fe69db0e5a587e6b49b000000000000000000000000000000000000000000000081525081526020016040805190810160405280600681526020017fe4b8bbe5aeb0000000000000000000000000000000000000000000000000000081525081526020016040805190810160405280600c81526020017fe58589e4b98be5ae88e58dab000000000000000000000000000000000000000081525081526020016040805190810160405280600681526020017fe69886e58da1000000000000000000000000000000000000000000000000000081525081526020016040805190810160405280600f81526020017fe5869be59ba2e68c87e68ca5e5ae98000000000000000000000000000000000081525081526020016040805190810160405280600981526020017fe68b89e5b8ade5858b000000000000000000000000000000000000000000000081525081526020016040805190810160405280600681526020017fe5b7abe5a696000000000000000000000000000000000000000000000000000081525081526020016040805190810160405280600981526020017fe599ace9ad82e9acbc000000000000000000000000000000000000000000000081525081526020016040805190810160405280600681526020017fe88e89e5a89c000000000000000000000000000000000000000000000000000081525081526020016040805190810160405280600681526020017fe88eb1e681a9000000000000000000000000000000000000000000000000000081525081526020016040805190810160405280600981526020017fe5beb7e9b281e4bc8a000000000000000000000000000000000000000000000081525081526020016040805190810160405280600681526020017fe99cb2e5a89c000000000000000000000000000000000000000000000000000081525081526020016040805190810160405280600681526020017fe78bbce4baba000000000000000000000000000000000000000000000000000081525081526020016040805190810160405280600c81526020017fe9a9ace6a0bce7bab3e696af000000000000000000000000000000000000000081525081526020016040805190810160405280600981526020017fe7be8ee69d9ce88e8e000000000000000000000000000000000000000000000081525081526020016040805190810160405280600681526020017fe7b1b3e6b3a2000000000000000000000000000000000000000000000000000081525081526020016040805190810160405280600981526020017fe7b1b3e68b89e5a89c000000000000000000000000000000000000000000000081525081526020016040805190810160405280600c81526020017fe9bd90e5a4a9e5a4a7e59ca3000000000000000000000000000000000000000081525081526020016040805190810160405280600c81526020017fe58f98e4bd93e7b2bee781b5000000000000000000000000000000000000000081525081526020016040805190810160405280600c81526020017fe5a89ce8bfa6e6b5b7e5a696000000000000000000000000000000000000000081525081526020016040805190810160405280600681526020017fe58588e79fa5000000000000000000000000000000000000000000000000000081525081526020016040805190810160405280600c81526020017fe7989fe796abe6b395e5b888000000000000000000000000000000000000000081525081526020016040805190810160405280600c81526020017fe69a97e5a49ce9ad94e78e8b000000000000000000000000000000000000000081525081526020016040805190810160405280600c81526020017fe58fb8e5a49ce588bae5aea2000000000000000000000000000000000000000081525081526020016040805190810160405280601281526020017fe9a39fe4babae9ad94e9ad94e6b395e5b888000000000000000000000000000081525081526020016040805190810160405280600c81526020017fe585a8e883bde9aa91e5a3ab000000000000000000000000000000000000000081525081526020016040805190810160405280600981526020017fe7a59ee8b095e88085000000000000000000000000000000000000000000000081525081526020016040805190810160405280600f81526020017fe6ae81e5a283e7a59ee89a80e88085000000000000000000000000000000000081525081526020016040805190810160405280600c81526020017fe79fb3e9b39ee58991e5a3ab000000000000000000000000000000000000000081525081526020016040805190810160405280600c81526020017fe5b9bbe5bdb1e588bae5aea2000000000000000000000000000000000000000081525081526020016040805190810160405280600f81526020017fe5b9bbe5bdb1e995bfe79f9be6898b000000000000000000000000000000000081525081526020016040805190810160405280600681526020017fe587a4e587b0000000000000000000000000000000000000000000000000000081525081526020016040805190810160405280600681526020017fe5b895e5858b000000000000000000000000000000000000000000000000000081525081526020016040805190810160405280600681526020017fe5b895e59089000000000000000000000000000000000000000000000000000081525081526020016040805190810160405280600981526020017fe5b895e6a0bce7bab3000000000000000000000000000000000000000000000081525081526020016040805190810160405280600c81526020017fe7979be88ba6e5a5b3e78e8b000000000000000000000000000000000000000081525081526020016040805190810160405280600681526020017fe58983e58880000000000000000000000000000000000000000000000000000081525081526020016040805190810160405280600681526020017fe58a9be4b8b8000000000000000000000000000000000000000000000000000081525081526020016040805190810160405280600981526020017fe68b89e6af94e5858b000000000000000000000000000000000000000000000081525081526020016040805190810160405280600681526020017fe6b299e78e8b000000000000000000000000000000000000000000000000000081525081526020016040805190810160405280600c81526020017fe69a97e5bdb1e681b6e9ad94000000000000000000000000000000000000000081525081526020016040805190810160405280600681526020017fe5bdb1e9ad94000000000000000000000000000000000000000000000000000081525081526020016040805190810160405280600c81526020017fe69a97e5bdb1e890a8e6bba1000000000000000000000000000000000000000081525081526020016040805190810160405280600c81526020017fe6b289e9bb98e69cafe5a3ab000000000000000000000000000000000000000081525081526020016040805190810160405280600c81526020017fe5a4a9e68092e6b395e5b888000000000000000000000000000000000000000081525081526020016040805190810160405280600981526020017fe696afe68b89e8bebe000000000000000000000000000000000000000000000081525081526020016040805190810160405280600981526020017fe696afe68b89e5858b000000000000000000000000000000000000000000000081525081526020016040805190810160405280600981526020017fe78b99e587bbe6898b000000000000000000000000000000000000000000000081525081526020016040805190810160405280600681526020017fe5b9bde9acbc000000000000000000000000000000000000000000000000000081525081526020016040805190810160405280600981526020017fe8a382e9ad82e4baba000000000000000000000000000000000000000000000081525081526020016040805190810160405280600c81526020017fe9a38ee69ab4e4b98be781b5000000000000000000000000000000000000000081525081526020016040805190810160405280600681526020017fe696afe6b8a9000000000000000000000000000000000000000000000000000081525081526020016040805190810160405280600981526020017fe5b7a5e7a88be5b888000000000000000000000000000000000000000000000081525081526020016040805190810160405280600c81526020017fe59ca3e5a082e588bae5aea2000000000000000000000000000000000000000081525081526020016040805190810160405280600c81526020017fe68190e68096e588a9e58883000000000000000000000000000000000000000081525081526020016040805190810160405280600c81526020017fe6bdaee6b190e78c8ee4baba000000000000000000000000000000000000000081525081526020016040805190810160405280600981526020017fe4bc90e69ca8e69cba000000000000000000000000000000000000000000000081525081526020016040805190810160405280600981526020017fe4bfaee8a1a5e58ca0000000000000000000000000000000000000000000000081525081526020016040805190810160405280600681526020017fe5b08fe5b08f000000000000000000000000000000000000000000000000000081525081526020016040805190810160405280600c81526020017fe6a091e7b2bee58dabe5a3ab000000000000000000000000000000000000000081525081526020016040805190810160405280600c81526020017fe5b7a8e9ad94e68898e5b086000000000000000000000000000000000000000081525081526020016040805190810160405280600c81526020017fe5b7a8e78999e6b5b7e6b091000000000000000000000000000000000000000081525081526020016040805190810160405280600681526020017fe5adbde4b8bb000000000000000000000000000000000000000000000000000081525081526020016040805190810160405280600c81526020017fe4b88de69cbde5b0b8e78e8b000000000000000000000000000000000000000081525081526020016040805190810160405280600981526020017fe7868ae68898e5a3ab000000000000000000000000000000000000000000000081525081526020016040805190810160405280600c81526020017fe5a48de4bb87e4b98be9ad82000000000000000000000000000000000000000081525081526020016040805190810160405280600c81526020017fe589a7e6af92e69cafe5a3ab000000000000000000000000000000000000000081525081526020016040805190810160405280600c81526020017fe586a5e7958ce4ba9ae9be99000000000000000000000000000000000000000081525081526020016040805190810160405280600981526020017fe7bbb4e890a8e59089000000000000000000000000000000000000000000000081525081526020016040805190810160405280600681526020017fe69cafe5a3ab000000000000000000000000000000000000000000000000000081525081526020016040805190810160405280600981526020017fe7bc96e7bb87e88085000000000000000000000000000000000000000000000081525081526020016040805190810160405280600981526020017fe9a38ee8a18ce88085000000000000000000000000000000000000000000000081525081526020016040805190810160405280600c81526020017fe5af92e586ace9a39ee9be99000000000000000000000000000000000000000081525081526020016040805190810160405280600681526020017fe5b7abe58cbb000000000000000000000000000000000000000000000000000081525081526020016040805190810160405280600c81526020017fe586a5e9ad82e5a4a7e5b89d000000000000000000000000000000000000000081525081526020016040805190810160405280600681526020017fe5ae99e696af0000000000000000000000000000000000000000000000000000815250815250600390607462001add92919062001c8c565b5034801562001aeb57600080fd5b5060008090505b60038054905081101562001c4457600060606040519081016040528083815260200160038481548110151562001b2457fe5b906000526020600020018054600181600116156101000203166002900480601f01602080910402602001604051908101604052809291908181526020018280546001816001161561010002031660029004801562001bc65780601f1062001b9a5761010080835404028352916020019162001bc6565b820191906000526020600020905b81548152906001019060200180831162001ba857829003601f168201915b5050505050815260200160008152509080600181540180825580915050906001820390600052602060002090600302016000909192909190915060008201518160000155602082015181600101908051906020019062001c2892919062001cf3565b5060408201518160020155505050808060010191505062001af2565b33600260006101000a81548173ffffffffffffffffffffffffffffffffffffffff021916908373ffffffffffffffffffffffffffffffffffffffff1602179055505062001e1f565b82805482825590600052602060002090810192821562001ce0579160200282015b8281111562001cdf57825182908051906020019062001cce92919062001cf3565b509160200191906001019062001cad565b5b50905062001cef919062001d7a565b5090565b828054600181600116156101000203166002900490600052602060002090601f016020900481019282601f1062001d3657805160ff191683800117855562001d67565b8280016001018555821562001d67579182015b8281111562001d6657825182559160200191906001019062001d49565b5b50905062001d76919062001dab565b5090565b62001da891905b8082111562001da4576000818162001d9a919062001dd3565b5060010162001d81565b5090565b90565b62001dd091905b8082111562001dcc57600081600090555060010162001db2565b5090565b90565b50805460018160011615610100020316600290046000825580601f1062001dfb575062001e1c565b601f01602090049060005260206000209081019062001e1b919062001dab565b5b50565b6108498062001e2f6000396000f300608060405260043610610057576000357c0100000000000000000000000000000000000000000000000000000000900463ffffffff1680630121b93f1461005c57806306a49fce146100995780637b5bc2e4146100c6575b600080fd5b34801561006857600080fd5b50610083600480360361007e91908101906104d5565b6100f1565b60405161009091906106fb565b60405180910390f35b3480156100a557600080fd5b506100ae610232565b6040516100bd939291906106af565b60405180910390f35b3480156100d257600080fd5b506100db610465565b6040516100e891906106fb565b60405180910390f35b6000806000805490508310151561013d576040517f08c379a000000000000000000000000000000000000000000000000000000000815260040161013490610736565b60405180910390fd5b600160003373ffffffffffffffffffffffffffffffffffffffff1673ffffffffffffffffffffffffffffffffffffffff16815260200190815260200160002090508060010160009054906101000a900460ff161515156101d2576040517f08c379a00000000000000000000000000000000000000000000000000000000081526004016101c990610716565b60405180910390fd5b6000838154811015156101e157fe5b90600052602060002090600302016002016000815480929190600101919050555082816000018190555060018160010160006101000a81548160ff0219169083151502179055506001915050919050565b606080606080606080600080805490506040519080825280602002602001820160405280156102705781602001602082028038833980820191505090505b5093506000805490506040519080825280602002602001820160405280156102ac57816020015b60608152602001906001900390816102975790505b5092506000805490506040519080825280602002602001820160405280156102e35781602001602082028038833980820191505090505b509150600090505b6000805490508110156104535760008181548110151561030757fe5b906000526020600020906003020160000154848281518110151561032757fe5b906020019060200201818152505060008181548110151561034457fe5b90600052602060002090600302016001018054600181600116156101000203166002900480601f0160208091040260200160405190810160405280929190818152602001828054600181600116156101000203166002900480156103e95780601f106103be576101008083540402835291602001916103e9565b820191906000526020600020905b8154815290600101906020018083116103cc57829003601f168201915b505050505083828151811015156103fc57fe5b9060200190602002018190525060008181548110151561041857fe5b906000526020600020906003020160020154828281518110151561043857fe5b906020019060200201818152505080806001019150506102eb565b83838396509650965050505050909192565b600080600160003373ffffffffffffffffffffffffffffffffffffffff1673ffffffffffffffffffffffffffffffffffffffff16815260200190815260200160002090508060010160009054906101000a900460ff1691505090565b60006104cd82356107c1565b905092915050565b6000602082840312156104e757600080fd5b60006104f5848285016104c1565b91505092915050565b600061050982610770565b8084526020840193508360208202850161052285610756565b60005b8481101561055b57838303885261053d8383516105d6565b925061054882610791565b9150602088019750600181019050610525565b508196508694505050505092915050565b60006105778261077b565b80845260208401935061058983610763565b60005b828110156105bb5761059f8683516106a0565b6105a88261079e565b915060208601955060018101905061058c565b50849250505092915050565b6105d0816107ab565b82525050565b60006105e182610786565b8084526105f58160208601602086016107cb565b6105fe816107fe565b602085010191505092915050565b6000603982527f457665727920766f74657220636f756c6420766f7465206f6e6c79206f6e636560208301527f2c20796f75206861766520616c726561647920766f7465642e000000000000006040830152606082019050919050565b6000602082527f54686520766f7465206e756d626572206973206f7574206f6620696e6465782e6020830152604082019050919050565b6106a9816107b7565b82525050565b600060608201905081810360008301526106c9818661056c565b905081810360208301526106dd81856104fe565b905081810360408301526106f1818461056c565b9050949350505050565b600060208201905061071060008301846105c7565b92915050565b6000602082019050818103600083015261072f8161060c565b9050919050565b6000602082019050818103600083015261074f81610669565b9050919050565b6000602082019050919050565b6000602082019050919050565b600081519050919050565b600081519050919050565b600081519050919050565b6000602082019050919050565b6000602082019050919050565b60008115159050919050565b6000819050919050565b6000819050919050565b60005b838110156107e95780820151818401526020810190506107ce565b838111156107f8576000848401525b50505050565b6000601f19601f83011690509190505600a265627a7a7230582006bd27bc30161206b61016d1ec41ecd086565d7b79e949647a54d2469c310da36c6578706572696d656e74616cf50037",
  "source": "pragma solidity ^0.4.23;\r\npragma experimental ABIEncoderV2;\r\ncontract Ballot {\r\n    //选民\r\n    struct Voter {\r\n        uint number;    //选票号, 对应候选者编号\r\n        bool isVoted;   //已投票\r\n    }\r\n    //候选者\r\n    struct Candidate {\r\n        uint number;    //候选者编号\r\n        string name;    //名字\r\n        uint count;     //票数\r\n    }\r\n    //候选者们\r\n    Candidate[] candidates;\r\n    //选民们\r\n    mapping(address => Voter) voters;\r\n    //投票发起人\r\n    address chairperson;\r\n    //是否已投票\r\n    function isVoted() public view returns (bool) {\r\n        Voter storage sender = voters[msg.sender];\r\n        return sender.isVoted;\r\n    }\r\n    //候选者们的名字\r\n    string[] names = [\r\n            \"亚巴顿\",\r\n            \"炼金术士\",\r\n            \"远古冰魄\",\r\n            \"敌法师\",\r\n            \"天穹守望者\",\r\n            \"斧王\",\r\n            \"祸乱之源\",\r\n            \"蝙蝠骑士\",\r\n            \"兽王\",\r\n            \"嗜血狂魔\",\r\n            \"赏金猎人\",\r\n            \"酒仙\",\r\n            \"钢背兽\",\r\n            \"育母蜘蛛\",\r\n            \"半人马战行者\",\r\n            \"混沌骑士\",\r\n            \"陈\",\r\n            \"克林克兹\",\r\n            \"发条技师\",\r\n            \"水晶室女\",\r\n            \"黑暗贤者\",\r\n            \"邪影芳灵\",\r\n            \"戴泽\",\r\n            \"死亡先知\",\r\n            \"干扰者\",\r\n            \"末日使者\",\r\n            \"龙骑士\",\r\n            \"卓尔游侠\",\r\n            \"大地之灵\",\r\n            \"撼地者\",\r\n            \"上古巨神\",\r\n            \"灰烬之灵\",\r\n            \"魅惑魔女\",\r\n            \"谜团\",\r\n            \"虚空假面\",\r\n            \"天涯墨客\",\r\n            \"矮人直升机\",\r\n            \"哈斯卡\",\r\n            \"祈求者\",\r\n            \"艾欧\",\r\n            \"杰奇洛\",\r\n            \"主宰\",\r\n            \"光之守卫\",\r\n            \"昆卡\",\r\n            \"军团指挥官\",\r\n            \"拉席克\",\r\n            \"巫妖\",\r\n            \"噬魂鬼\",\r\n            \"莉娜\",\r\n            \"莱恩\",\r\n            \"德鲁伊\",\r\n            \"露娜\",\r\n            \"狼人\",\r\n            \"马格纳斯\",\r\n            \"美杜莎\",\r\n            \"米波\",\r\n            \"米拉娜\",\r\n            \"齐天大圣\",\r\n            \"变体精灵\",\r\n            \"娜迦海妖\",\r\n            \"先知\",\r\n            \"瘟疫法师\",\r\n            \"暗夜魔王\",\r\n            \"司夜刺客\",\r\n            \"食人魔魔法师\",\r\n            \"全能骑士\",\r\n            \"神谕者\",\r\n            \"殁境神蚀者\",\r\n            \"石鳞剑士\",\r\n            \"幻影刺客\",\r\n            \"幻影长矛手\",\r\n            \"凤凰\",\r\n            \"帕克\",\r\n            \"帕吉\",\r\n            \"帕格纳\",\r\n            \"痛苦女王\",\r\n            \"剃刀\",\r\n            \"力丸\",\r\n            \"拉比克\",\r\n            \"沙王\",\r\n            \"暗影恶魔\",\r\n            \"影魔\",\r\n            \"暗影萨满\",\r\n            \"沉默术士\",\r\n            \"天怒法师\",\r\n            \"斯拉达\",\r\n            \"斯拉克\",\r\n            \"狙击手\",\r\n            \"幽鬼\",\r\n            \"裂魂人\",\r\n            \"风暴之灵\",\r\n            \"斯温\",\r\n            \"工程师\",\r\n            \"圣堂刺客\",\r\n            \"恐怖利刃\",\r\n            \"潮汐猎人\",\r\n            \"伐木机\",\r\n            \"修补匠\",\r\n            \"小小\",\r\n            \"树精卫士\",\r\n            \"巨魔战将\",\r\n            \"巨牙海民\",\r\n            \"孽主\",\r\n            \"不朽尸王\",\r\n            \"熊战士\",\r\n            \"复仇之魂\",\r\n            \"剧毒术士\",\r\n            \"冥界亚龙\",\r\n            \"维萨吉\",\r\n            \"术士\",\r\n            \"编织者\",\r\n            \"风行者\",\r\n            \"寒冬飞龙\",\r\n            \"巫医\",\r\n            \"冥魂大帝\",\r\n            \"宙斯\"\r\n        ];\r\n\r\n    //构造函数\r\n    constructor() public {\r\n        //添加候选者, 候选者编号从0递增\r\n        for (uint i = 0; i < names.length; i++) {\r\n            candidates.push(Candidate({\r\n                number: i,\r\n                name: names[i],\r\n                count: 0\r\n            }));\r\n        }\r\n        chairperson = msg.sender;\r\n    }\r\n    //投票\r\n    function vote(uint _number) public returns (bool) {\r\n        require (_number < candidates.length, \"The vote number is out of index.\");//选票编号必须小于候选者数量\r\n        Voter storage sender = voters[msg.sender];\r\n        require(!sender.isVoted, \"Every voter could vote only once, you have already voted.\");//每个选民只能投票一次\r\n        candidates[_number].count++;\r\n        sender.number = _number;\r\n        sender.isVoted = true;\r\n        return true;\r\n    }\r\n    //获得当前选票结果, 返回值是简单数据类型供前端调用\r\n    function getCandidates() public view returns (uint[], string[], uint[]) {\r\n        uint[] memory numbers = new uint[] (candidates.length);\r\n        string[] memory names = new string[] (candidates.length);\r\n        uint[] memory counts = new uint[] (candidates.length);\r\n\r\n        for (uint i = 0; i < candidates.length; i++) {\r\n            numbers[i] = candidates[i].number;\r\n            names[i] = candidates[i].name;\r\n            counts[i] = candidates[i].count;\r\n        }\r\n        return(numbers, names, counts);\r\n    }\r\n}",
  "sourcePath": "F:\\Ballot\\contracts\\Ballot.sol",
  "compiler": {
    "name": "solc",
    "version": "0.4.23+commit.124ca40d.Emscripten.clang"
  },
  "schemaVersion": "2.0.0",
  "updatedAt": "2018-12-31T13:50:10.491Z"
}